:0406000093EF13F071
:08060800046ED8CF05F0E0CF2D
:1006100006F00001E9CF0CF0EACF07F0E1CF08F0D7
:10062000E2CF09F0D9CF0AF0DACF0BF0F3CF12F016
:10063000F4CF13F0FACF14F000C00EF001C00FF0A9
:1006400002C010F003C011F09DA02AEF03F09EB08D
:10065000F2EF04F0F2A830EF03F0F2B264EF05F02D
:100660000EC000F00FC001F010C002F011C003F086
:100670000CC0E9FF07C0EAFF078E08C0E1FF09C010
:10068000E2FF0AC0D9FF0BC0DAFF12C0F3FF13C0AC
:10069000F4FF14C0FAFF045006C0E0FF05C0D8FF05
:1006A000100007AE03D0F2CF0DF0F29EF76AC40F30
:1006B000F66E060EF7220900F55007AE02D00DBE09
:1006C000F28E120000C1814001C0804101C0804112
:1006D00000C1814001C0804100C1814000C1814012
:1006E00001C0804101C0804100C1814000C1814002
:1006F00001C0804100C1814001C0804101C08041F2
:1007000000C1814001C0804100C1814000C18140E1
:1007100001C0804100C1814001C0804101C08041D1
:1007200000C1814000C1814001C0804101C08041C1
:1007300000C1814001C0804100C1814000C18140B1
:1007400001C0804101C0804100C1814000C18140A1
:1007500001C0804100C1814001C0804101C0804191
:1007600000C1814000C1814001C0804101C0804181
:1007700000C1814001C0804100C1814000C1814071
:1007800001C0804100C1814001C0804101C0804161
:1007900000C1814001C0804100C1814000C1814051
:1007A00001C0804101C0804100C1814000C1814041
:1007B00001C0804100C1814001C0804101C0804131
:1007C00000C1814007AE03D0F2CF0DF0F29EF76A70
:1007D000E60FF66E070EF7220900F55007AE02D0BD
:1007E0000DBEF28E120000C0C101C30302C2C606D4
:1007F00007C705C5C404CC0C0DCD0FCFCE0E0ACA59
:10080000CB0BC90908C8D81819D91BDBDA1A1EDEA8
:10081000DF1FDD1D1CDC14D4D515D71716D6D21258
:1008200013D311D1D010F03031F133F3F23236F668
:10083000F737F53534F43CFCFD3DFF3F3EFEFA3A18
:100840003BFB39F9F83828E8E929EB2B2AEAEE2EA8
:100850002FEF2DEDEC2CE42425E527E7E62622E218
:10086000E323E12120E0A06061A163A3A26266A668
:10087000A767A56564A46CACAD6DAF6F6EAEAA6AD8
:100880006BAB69A9A86878B8B979BB7B7ABABE7E28
:100890007FBF7DBDBC7CB47475B577B7B67672B2D8
:1008A000B373B17170B05090915193535292965668
:1008B0005797559594549C5C5D9D5F9F9E5E5A9A98
:1008C0009B5B99595898884849894B8B8A4A4E8E28
:1008D0008F4F8D4D4C8C4484854587474686824298
:1008E000438341818040F2CF0DF0F29EF76A000F02
:1008F000F66E090EF7220900F5500DBEF28E1200B9
:10090000524553455400F2CF0DF0F29EF76A200F86
:10091000F66E090EF7220900F5500DBEF28E120098
:10092000414C4C5F434F494C5300F2CF0DF0F29EC7
:10093000F76A440FF66E090EF7220900F5500DBE56
:10094000F28E120054454D500000F2CF0DF0F29E91
:10095000F76A640FF66E090EF7220900F5500DBE16
:10096000F28E120042504D00F2CF0DF0F29EF76A67
:10097000820FF66E090EF7220900F5500DBEF28EB9
:100980001200414C4C00F2CF0DF0F29EF76AA00F1E
:10099000F66E090EF7220900F5500DBEF28E120018
:1009A000494E505554530000F2CF0DF0F29EF76AB5
:1009B000C20FF66E090EF7220900F5500DBEF28E39
:1009C000120053455400F2CF0DF0F29EF76AE00F8B
:1009D000F66E090EF7220900F5500DBEF28E1200D8
:1009E00047455400632BD8B4642B9E9030EF03F03E
:1009F000938081B0FED7080E006E0101096BF2CF23
:100A00000AF1F29E008E11D0009E0FD0D89081B0D6
:100A1000D8800933008C09D0009C002EF7D7008ABB
:100A200004D0009A09C101F00ED0840E00BE240E3D
:100A3000016E012EFED700D000BEE6D700BCECD779
:100A400000BAEFD7E3D70ABFF28E000165EF05F0D9
:100A50000AC100F00BC101F0026AD89000360136DD
:100A6000023601C063F002C064F000C0CFFFCE6A5E
:100A700012001E92010109B11E820B6B0A6B00016C
:100A8000E7DF12006B51010109190A6F036A0A516D
:100A9000F2CF0BF1F29E000104DE01010BBFF28EDA
:100AA000016E00016A5101186B6F036A01010A515E
:100AB000F2CF0BF1F29E000185DE01010BBFF28E39
:100AC000E8CF6AF00001120093D701C008F11EB010
:100AD0002AD0695308E16B696A6908C11FF0692B64
:100AE000206A226A18D0692D04D008C121F0692B30
:100AF00012D0695102080FE120503F0802E23F0E78
:100B0000206E036A2050230FE96E000E0320EA6E68
:100B100008C1EFFF202A010E0101096F0001A9DFC2
:100B200008C109F1AFDF686B676B270E666F100EA7
:100B3000656FF29230EF03F0436F696C733A0D0A00
:100B40000000446174613A2000004745545F414C05
:100B50004C5F434F494C533D25753A25582A0000B8
:100B60000D0A0D0A00004552525F414C4C5F434F45
:100B7000494C533D25753A25582A0000496E707539
:100B800074733A0D0A00446174613A2000000D0A42
:100B90000D0A00004745545F54454D503D25753AB8
:100BA00025662A0D0A004745545F54454D503D25A2
:100BB000753A4552524F5F25582A0D0A00004745A5
:100BC000545F42504D3D25753A256C752A0D0A003B
:100BD0004745545F42504D3D25753A4552524F5F4F
:100BE00025582A0D0A00486F6C64696E67205265AB
:100BF000676973746572733A0D0A00004461746129
:100C00003A2000000D0A0D0A00003C2D2A2A4578E2
:100C100063657074696F6E2025582A2A2D3E0D0A6F
:100C20000D0A0000446174613A2000000D0A0D0AAB
:100C3000000057726974696E672053696E676C654E
:100C400020436F696C3A0D0A0000446174613A20D8
:100C500000000D0A0D0A00003C2D2A2A4578636524
:100C60007074696F6E2025582A2A2D3E0D0A0D0AD0
:100C7000000057726974696E672053696E676C650E
:100C80002052656769737465723A0D0A0000446109
:100C900074613A2000000D0A0D0A00003C2D2A2A3A
:100CA000457863657074696F6E2025582A2A2D3E39
:100CB0000D0A0D0A000057726974696E67204D7540
:100CC0006C7469706C6520436F696C733A0D0A002F
:100CD000446174613A2000000D0A0D0A00003C2DA9
:100CE0002A2A457863657074696F6E2025582A2A10
:100CF0002D3E0D0A0D0A000057726974696E672057
:100D00004D756C7469706C652052656769737465A4
:100D100072733A0D0A00446174613A2000000D0AB2
:100D20000D0A00003C2D2A2A457863657074696FAE
:100D30006E2025582A2A2D3E0D0A0D0A00005472F5
:100D400079696E6720756E6B6E6F776E2066756E53
:100D50006374696F6E0D0A00446961676E6F737426
:100D600069633A0D0A00446174613A000D0A0D0A84
:100D700000003C2D2A2A457863657074696F6E20E7
:100D800025582A2A2D3E0D0A0D0A00005345545FAE
:100D900052455345543D313A4F4B2A004556545F16
:100DA0005744545F54494D454F55543D313A312ACB
:100DB00000004556545F5744545F534C4545503DE1
:100DC000313A312A00004556545F4D434C525F463C
:100DD000524F4D5F52554E3D313A312A0000455633
:100DE000545F42524F574E4F55545F5245535441F2
:100DF00052543D313A312A004556545F4D434C52CE
:100E00005F46524F4D5F534C4545503D313A312A74
:100E100000004556545F52455345545F494E535464
:100E200052554354494F4E3D313A312A0000455600
:100E3000545F4E4F524D414C5F504F5745525F5596
:100E4000503D313A312A0000EA6AEE0EE96EEF5069
:100E50000EE0050E016E006A002EFED7012EFBD7B4
:100E60002E0E006E002EFED700D0EF2EF2D712000D
:100E70000900F5520DE0F6CFDFF0F7CFE0F0F550C6
:100E80009EA8FED7AD6EDFC0F6FFE0C0F7FFF0D73B
:100E90001200C80EEE6FD8DFD0500F0BD0A8000E96
:100EA000D080D082D088D886D888F00F41E2100F49
:100EB0009AEF07F09C0EF66E0D0EF76ED9DFC80E96
:100EC000EE6FC2DF35D0B20EF66E0D0EF76ED0DFCC
:100ED000C80EEE6FB9DF2CD0C60EF66E0D0EF76E93
:100EE000C7DFC80EEE6FB0DF23D0DE0EF66E0D0E3C
:100EF000F76EBEDFC80EEE6FA7DF1AD0F80EF66EE3
:100F00000D0EF76EB5DFC80EEE6F9EDF11D0120E1C
:100F1000F66E0E0EF76EACDFC80EEE6F95DF08D0E2
:100F20002E0EF66E0E0EF76EA3DFC80EEE6F8CDF80
:100F3000CAEF07F0F2CF0DF0F29EE824F76AF73619
:100F4000590FF66E0F0EF7220A00F550FA6E0800E0
:100F5000F5500DBEF28EF96E0E0F300F300FC60E2B
:100F6000300F300F300FB40E300F300F300FFC0E3B
:100F7000200F300FEA0ED80EF292F19C939A8A9AC3
:100F8000F288120093988A98F7DFC00EF212D2EF1F
:100F900007F07FD7000E7E6EC198C19A7F50E00B9C
:100FA0007F6EF0D7C7EF13F0EFC0F6F0F351F61BEA
:100FB000F6AF05D0D894D890EFBFD8802FD0EFC02F
:100FC000F6F0F2C0F7F0EE51F75F06E0F6AF26D08C
:100FD000D850010AD86E22D0F3C0F7F0EF51F75F76
:100FE00006E0F6AF1BD0D850010AD86E17D0F4C077
:100FF000F7F0F051F75F06E0F6AF10D0D850010AD5
:10100000D86E0CD0F5C0F7F0F151F75F06E0F6AFFF
:1010100005D0D850010AD86E01D0D89012009EAAEF
:10102000FED7ABCF17F0AECF01F017A202D0AB982E
:10103000AB8858EF13F0800ED8B2F31BF86BF96B46
:10104000EFC0F7F0F351F71BEE51D8B4DCD0F66FD8
:10105000006EF251D8B4E0D0F65FD8B481D03DE351
:10106000F3C0FCF0FC8FF4C0FBF0F5C0FAF0F96BB4
:10107000D890FC33FB33FA33F933F62FF8D7F7AFB8
:1010800003D0F881DDD0F891F691F889EA6AF10E83
:10109000E96EE9D0F899F7BF0AD0F6A113D0FC3376
:1010A000FB33FA33F933002AD8B4C5D00BD0FCBFD8
:1010B0000CD0D890F937FA37FB37FC370006D8B494
:1010C000BAD0F5D7F88D6BD0F89DEFC0F7F0EFAF41
:1010D00002D0FC8FA9D0FC9FA7D0F2C0F6F0F2C0DE
:1010E00000F0EE51F65FEFC0FCF0FC8FF0C0FBF0BB
:1010F000F1C0FAF0F96BD890FC33FB33FA33F933D3
:10110000F62FF8D7F7AF03D0F8839AD0F893F6917B
:10111000F88BEA6AF50EE96EA6D0F89BF7BF0AD005
:10112000F6A113D0FC33FB33FA33F933002AD8B4D9
:1011300082D00BD0FCBF0CD0D890F937FA37FB37F0
:10114000FC370006D8B477D0F5D7F88F28D0F89FB1
:10115000F3C0F7F0F3AF02D0FC8F66D0FC9F64D0F1
:10116000F3C0FCF0FC8FF4C0FBF0F5C0FAF0F7AF71
:1011700004D0FC9FF88564D0F895F96BF691EA6A83
:10118000F10EE96E70D0F7BF1CD0EFC0F7F0F6A1FA
:1011900006D0FC33FB33FA33F933002A4CE0F9AFC5
:1011A0000BD0FA2B09E1FB2B07E1FC2B05E1FC330B
:1011B000FB33FA33002A3FE0F8BD86D7F8BFC7D724
:1011C0001CD0800EFC1BFCAF04D03AD0F3C0F7F06B
:1011D0000AD0EFC0F7F0FC5306E1FB5304E1FA53E9
:1011E00002E1006A21D0FCBF08D0D890F937FA3765
:1011F000FB37FC37002EF7D71ED0F7AF02D0FC8F9D
:1012000013D0FC9F11D0F2C000F0F3C0FCF0F4C08A
:10121000FBF0F5C0FAF008D0EEC000F0EFC0FCF033
:10122000F0C0FBF0F1C0FAF0FCC001F0FBC002F02E
:10123000FAC003F034D0006A016A026A036A2FD050
:10124000F96BFA1FFB1FFC1FF91FF92B05E1FA2BA5
:1012500003E1FB2B01E1FC2BF8B115D7F8B356D70E
:10126000F8B58AD7B3D7EF50FA2705E3FB2B03E194
:10127000FC2BD8B4F681ED52EF50FB2703E3FC2B97
:10128000D8B4F681ED52EF50EFBE01D0800AFC27B2
:10129000D8B0F681F8B9FED6F8BB3FD774D71200A4
:1012A000DDC0E9FFDEC0EAFFEFCFE1F0E0C003F010
:1012B000DFC0E9FFE0C0EAFFEF50E15D15E1DEC00D
:1012C00003F0DDC0E9FF03C0EAFFEF5203E1000EC7
:1012D000016E1FD0DEC003F0DD51DD2BD8B4DE2B54
:1012E000DF2BD8B4E02BDCD7DEC003F0DDC0E9FF94
:1012F000DEC0EAFFEFCFE1F0E0C003F0DFC0E9FFBE
:10130000E0C0EAFFEF50E15D02E2FF0E01D0010E06
:10131000016E1200EA6A800EE96EF2CFD8F0F29EFA
:10132000000E73EC04F00A000900F550EE6E00099F
:10133000FBE1D8BFF28EDE6B800EDD6FE06B980EA6
:10134000DF6FAEDF015209E18C0EF66E0D0EF76E07
:101350008FDDC80EEE6F78DDFF003DEF0AF0D66B33
:10136000040ED76F036AD7516C0FE96E000E03208D
:10137000EA6EEF503D081AE0036AD651980F016EED
:10138000000E032203C0D9F0036AD7516C0FE96E37
:10139000000E0320EA6EEFCFDAF0D9C0EAFF01C0F9
:1013A000E9FFDAC0EFFFD62BD72BDCD7036AD65183
:1013B000980FE96E000E0320EA6EEF6AD66B010EFD
:1013C000D727036AD7516C0FE96E000E0320EA6E2F
:1013D000EF503A081AE0036AD651AA0F016E000EC8
:1013E000032203C0D9F0036AD7516C0FE96E000ED7
:1013F0000320EA6EEFCFDAF0D9C0EAFF01C0E9FFBF
:10140000DAC0EFFFD62BD72BDCD7036AD651AA0F51
:10141000E96E000E0320EA6EEF6AD66B010ED72745
:10142000036AD7516C0FE96E000E0320EA6EEF508D
:101430002A081AE0036AD651AE0F016E000E03228D
:1014400003C0D9F0036AD7516C0FE96E000E032078
:10145000EA6EEFCFDAF0D9C0EAFF01C0E9FFDAC0E7
:10146000EFFFD62BD72BDCD7036AD651AE0FE96E30
:10147000000E0320EA6EEF6A4DD71BEF13F0006AEF
:10148000016AE451D890E5B1002600320132E5B39B
:10149000002600320132E5B5002600320132E5B700
:1014A000002600320132E5B9002600320132E5BBE8
:1014B000002600320132E5BD002600320132E5BFD0
:1014C000002600320132D1EF0AF0E26BE06B0A0E27
:1014D000E16FDF6BDD51DE1103E1000E016EC1D063
:1014E000E251E22B036ADD25E96EDE510320EA6E4C
:1014F000EFCFE3F0E3512D080DE1010EE06FE25173
:10150000E22B036ADD25E96EDE510320EA6EEFCFA0
:10151000E3F00DD0E3512B080AE1E251E22B036A1C
:10152000DD25E96EDE510320EA6EEFCFE3F0E351F3
:101530002F08D8B08ED0E3513908D8A08AD0E35113
:10154000300821E1036AE251DD25E96EDE51032016
:10155000EA6EEF5078080AE0036AE251DD25E96E91
:10156000DE510320EA6EEF5058080DE1100EE16FD6
:10157000E22BE251E22B036ADD25E96EDE51032006
:10158000EA6EEFCFE3F0E1510A081BE1E3512F08C7
:1015900017E2E351390814E30A0EE46FDFC0E5F007
:1015A0006ED7300EE35D0124DF6FE251E22B036A58
:1015B000DD25E96EDE510320EA6EEFCFE3F0E6D7DA
:1015C00048D0E151100845E1E351600806E2E351DB
:1015D0007A0803E3E351DF0B01D0E351E36FE351FA
:1015E0002F0803E2E351390806E2E351400831E2F3
:1015F000E35146082EE3E3512F080CE2E35139088A
:1016000009E3DF39E46FF00EE417300EE35DE42503
:10161000DF6F09D0DF39E46FF00EE417410EE35DB0
:101620000A0FE425DF6FE251E22B036ADD25E96E44
:10163000DE510320EA6EEFCFE3F0E351600806E2EB
:10164000E3517A0803E3E351DF0B01D0E351E36F89
:10165000C6D7E02D04D0E1510A0801E1DF6DDFC0FB
:1016600001F01200040EF65F09E3EA6AF60EE96E75
:10167000EF5004E001D00000EF2EFDD71200F2CFB2
:1016800003F0F29EF76B93968A96080E016E00D0D7
:101690000000018E17D0019EF651F71BF633D8B02B
:1016A0008A86D8A08A96018C0DD0019C012EF4D791
:1016B00000D00000F7B18A86F7A18A96018A02D08D
:1016C000019A8A86840EE96EE92EFED7000001BEDB
:1016D000E2D701BCEAD701BAF3D703BEF28E74EFAA
:1016E0000BF0F5C0F6F0CBD7166AF2BE168EF29E5E
:1016F000F5C009F142EC05F016BEF28E8A0E006EBE
:10170000002EFED7000012006B696A691E90F298E5
:1017100093988A88020EF56FB50EF66FA3DFF52F4A
:10172000FBD7F3C0F5F0DDDFF4C0F5F0DADF12002F
:101730006BC0F4F06AC0F3F0F4C0F5F0D2DFF3C090
:10174000F5F0CFDF020EF56FB50EF66F8BDFF52FDC
:10175000FBD712DC93988A986B696A69120063C0A0
:1017600001F0CE50CFCF03F09D90026E6351015C2B
:1017700004E0CE50CFCF03F001D0025003C000F000
:1017800063C001F064C002F00232013200329D8079
:10179000EBEF0BF0695102080AE16A5308E16B5361
:1017A00006E11EB004D0020E205E1E8001D01E9005
:1017B0006B696A69696B166AF2BE168EF29E010148
:1017C000096B000139EC05F016BEF28EF5EF0BF057
:1017D0001EA20BD0C4D701C0F4F000C0F3F0F45344
:1017E00003E1F351280801E2D5D7F8EF0BF0F0D769
:1017F0001EB004D0000E016E0AD006D021AE04D077
:1018000023C022F0010E206E1E90010E016E120008
:10181000DFC0F3F0010EF46F77DFE1C0E4F0E1C068
:10182000F5F05FDFE0C0E4F0E0C0F5F05ADFE3C0C0
:10183000E4F0E3C0F5F055DFE2C0E4F0E2C0F5F01B
:1018400050DF76DF1E92DF5320E0D1DF015213E13B
:10185000FF0E6527D8A06627D8A06727D8A06827DD
:10186000655306E1665304E1675302E1685303E000
:1018700000D000D0EAD7655308E1665306E167530C
:1018800004E1685302E10C0E226E686B676B270E51
:10189000666F100E656F22C001F0D8EF0CF00900E2
:1018A000F6CFEFF0F7CFF0F0F5509EA8FED7AD6E73
:1018B000EFC0F6FFF0C0F7FFEE2FF1D71200F151A5
:1018C000016AF05D03E2F0C000F00CD0006A080E7F
:1018D000F26FF0370036F151005CD8B0006E01367F
:1018E000F22FF7D712000150EEC0F0F0640EF16F46
:1018F000E6DF00C0EEF00150300E07E1EFA30DD09F
:10190000EFB70BD0EFB9200E03D0EF97EF99EF812F
:10191000012601509EA8FED7AD6EEEC0F0F00A0E73
:10192000F16FCDDF00C0EEF00150300E06E1EFB7F1
:1019300009D0EFA107D0EFB9200E012601509EA8D3
:10194000FED7AD6E300EEE27EE519EA8FED7AD6EDF
:101950001200EFBF10D00F0E006EEE3900160A0E07
:10196000005C03E2300E002602D0EF51002600504A
:101970009EA8FED7AD6E0F0EEE170A0EEE5D02E2C8
:10198000300E02D0EF9FEF51EE27EE519EA8FED70A
:10199000AD6E1200380EF66E0B0EF76E38EC07F0D7
:1019A000DDC0DFF0E16BE06BE36B080EE26F30D778
:1019B000015236E1420EF66E0B0EF76E38EC07F070
:1019C000010EDE6F2050DE5D24E2036ADE51230F3C
:1019D000E96E000E0320EA6EEFCFDFF04A0EF66EDE
:1019E0000B0EF76E0E0EEE6F5ADFDDC0EEF01B0E23
:1019F000EF6F79DF3A0E9EA8FED7AD6EDFC0EEF036
:101A0000370EEF6FA6DF2A0E9EA8FED7AD6EDE2B37
:101A1000D9D7600EF66E0B0EF76E38EC07F019D0C2
:101A2000660EF66E0B0EF76E0E0EEE6F38DFDDC033
:101A3000EEF01B0EEF6F57DF3A0E9EA8FED7AD6E8D
:101A400022C0EEF0370EEF6F84DF2A0E9EA8FED77D
:101A5000AD6E00EF12F0EEC0F3F0030EF46F54DE43
:101A6000F0C0F3F0F0C0F5F03CDEEFC0F3F0EFC0F3
:101A7000F5F037DEF2C0F3F0F2C0F5F032DEF1C07F
:101A8000F3F0F1C0F5F02DDE53DE1E92EE5320E0B0
:101A9000AEDE015213E1FF0E6527D8A06627D8A05D
:101AA0006727D8A06827655306E1665304E16753AA
:101AB00002E1685303E000D000D0EAD7655308E1A3
:101AC000665306E1675304E1685302E10C0E226E8F
:101AD000686B676B270E666F100E656F22C001F092
:101AE00012008E0E006EF0C001F0EFC002F0036A2B
:101AF000015209E102C001F0026A080E005E0152C3
:101B000002E1006A08D0D89001BE04D00236013646
:101B10000006F9D7019E1200FB51D8B488D0006EA0
:101B2000FF51D8B484D0002605E3810E0026D8B03A
:101B30007ED006D07F0E005ED8A079D0D8B477D002
:101B4000FCC003F101010051031B0001FC8F0101E6
:101B5000008F0001FE5101010203F4CF05F10001E5
:101B6000FD5101010103F4CF03F0F3CF04F10203AF
:101B7000F3500527F4500423000E03220001FE5108
:101B800001010103F3500527F4500423000E026AFB
:101B9000032202220001FC5101010203F350042739
:101BA000F4500322000E02220001FC510101010346
:101BB000F3500326F4500222000E016A01220001B4
:101BC000FE5101010003F3500427F4500322000EDC
:101BD000022201220001FD5101010003F3500326FE
:101BE000F4500222000E01220001FC510101000309
:101BF000F3500226F4500122002A01BE05D004371A
:101C00000336023601360006000E04AF0AD0032A5E
:101C100002220122015005E1025003E1035001E1DB
:101C2000002A03BF018E03AF019E06D00001006AA7
:101C3000016A026A036A010100011200FB51B60841
:101C4000FB6F036AFCC0FFF0FC8FD890FC33FD33C0
:101C5000FE330332023201320032FB2FF6D7FFAFE0
:101C60000BD0001E011E021E031E002AD8B4012A3A
:101C7000D8B4022AD8B4032AB9EF0EF0D8B204D0EF
:101C8000010EEA6E030EE96E006A016A026A036AD7
:101C90000101036B046B056B066B0251011100110E
:101CA0000001FF1134E0200E0101076FD890000100
:101CB000FB37FC37FD37FE370101033704370537A3
:101CC00006370251065D0AE10151055D07E1005149
:101CD000045D04E10001FF510101035D11E3000116
:101CE000FF510101035F0051D8A0003D045F015185
:101CF000D8A0013D055F0251D8A0023D065FD88003
:101D00000036013602360336072FD0D7000103C153
:101D1000EFFF04C1ECFF05C1ECFF06C1ECFF1200B0
:101D2000E950F36FF251F56F1BE0F1C0FEF0F0C027
:101D3000FDF0EFC0FCF0EEC0FBF00101026B016BA7
:101D4000200E006F820E0001FF6FE6DE03C0F1F08F
:101D500002C0F0F001C0EFF000C0EEF0F52FE5D7C3
:101D6000F1C0FEF0F0C0FDF0EFC0FCF0EEC0FBF003
:101D700065D703C0F1F002C0F0F001C0EFF000C081
:101D8000EEF0F1AF0DD0F307F38BEE1FEF1FF01F56
:101D9000F11FEE2BD8B4EF2BD8B4F02BD8B4F12B25
:101DA0003B0EFA6F9A0EF96FCA0EF86FF76B0A0EB8
:101DB000F56FF251D8B4F32BD882EA6AEE0EE96ED1
:101DC000F1C0FEF0F0C0FDF0EFC0FCF0EEC0FBF0A3
:101DD000FAC002F1F9C001F1F8C000F1F7C0FFF05C
:101DE0004DDF015000520FE1F229F55D0CE0F35197
:101DF0000CE00F0BF55D01E03BE2F3BF39D0F3BD22
:101E000004D0200E30D0200EF317F3AB0DD0F39B8F
:101E1000F251D8A4F3070050F36F2D0E9EA8FED701
:101E2000AD6EF351006EF36BF251F55D0BE10050B6
:101E3000F36F2E0E9EA8FED7AD6EF351006E200EEE
:101E4000F317000E300EF3AB0ED0F39BF251D8A473
:101E5000F3070050F36F2D0E9EA8FED7AD6EF35121
:101E6000006EF36B300E002600509EA8FED7AD6EBC
:101E7000D892FAC0FEF0F9C0FDF0F8C0FCF0F7C04F
:101E8000FBF00101026B016B006B0A0E0001FF6F9A
:101E9000F5DE03C0FAF002C0F9F001C0F8F000C0AE
:101EA000F7F0F52F89D723EF10F0DE6BDE51040831
:101EB000D8A0D8D0DDC0EEF0F06BEF6BF26B010E66
:101EC000F16FC9DD0152D8A4C6D020500208D8B0A5
:101ED000C2D024C0E1F025C0E0F0E1AF0FD02D0E5C
:101EE000DF6FE0C0EEF0EE1FE1C0EFF0EF1F010E7C
:101EF000EE25E06F000EEF21E16F02D02B0EDF6FB9
:101F0000E36BE26BE0510F0BE46FE131036EE03104
:101F1000026E0332023203320232033202320F0EF9
:101F2000031602C0EFF003C0F0F0DBDD03C0E8F001
:101F300002C0E7F001C0E6F000C0E5F0E43D19D0D2
:101F4000D892E8C0F1F0E7C0F0F0E6C0EFF0E5C0ED
:101F5000EEF0F56BF46BF36B7F0EF26F1BEC08F099
:101F600003C0E8F002C0E7F001C0E6F000C0E5F011
:101F70000AD0E96BE451E95D06E2950EE227010E15
:101F8000E323E92BF7D7F16BF06BEF6B7F0EEE6F6E
:101F9000E8C0F5F0E7C0F4F0E6C0F3F0E5C0F2F019
:101FA000D4EC07F058E3E3C0F0F0E2C0EFF099DDC5
:101FB00003C0FEF002C0FDF001C0FCF000C0FBF069
:101FC000170E0101026FB70E016F510E006F710EF7
:101FD0000001FF6FA1DDD892E8C0F1F0E7C0F0F09A
:101FE000E6C0EFF0E5C0EEF003C0F5F002C0F4F09B
:101FF00001C0F3F000C0F2F01BEC08F003C0EDF0FC
:1020000002C0ECF001C0EBF000C0EAF0940EF66EF6
:102010000B0EF76E090EEE6F42DCDDC0EEF01B0E0C
:10202000EF6F61DC3A0E9EA8FED7AD6E890EE96EA9
:10203000EDC0F1F0ECC0F0F0EBC0EFF0EAC0EEF074
:10204000020EF26F6DD6A20EF66E0B0EF76E030E39
:10205000EE6F25DC27D0010EDE27640EEE6F24EC38
:1020600007F024D7A60EF66E0B0EF76E090EEE6F74
:1020700016DCDDC0EEF01B0EEF6F35DCB10EF66E38
:102080000B0EF76E060EEE6F0ADC22C0EEF0370E76
:10209000EF6F5FDCB90EF66E0B0EF76E030EEE6F90
:1020A0004FEC0CF025EF12F0EACFE9F0E9CFE8F0C1
:1020B000E239F009E46FE427E20FE56F320FE76FD2
:1020C000E2510F0BE527E527E727E90FE66FE62743
:1020D000E627E1390F0BE627E727E637E737E71F63
:1020E000E737E1510F0BE727E437070EE36F0A0EDE
:1020F000E607E727FDE3E507E627FDE3E407E52735
:10210000FDE3E307E427FDE3EA6AE30EE96E070E69
:10211000E815E89DE926E70EE95CD8B4E88DEF50B4
:10212000006E08E1E8BD06D0E8B90CD0E8B702D0EF
:10213000200E03D0E887E899300E002600509EA8B4
:10214000FED7AD6EEE50E8ADE6D7D5EF10F0DE6B02
:10215000DE5104083AE3DDC0EEF0F06B010EEF6FE4
:10216000F26BF16F78DC015229E12050020826E27F
:1021700024C0E0F025C0DFF0BE0EF66E0B0EF76E49
:10218000080EEE6F4FEC0CF0DDC0EEF01B0EEF6FA3
:1021900073EC0CF03A0E9EA8FED7AD6E100EE96EF1
:1021A000E0C0E2F0DFC0E1F07FD7CC0EF66E0B0EA0
:1021B000F76E030EEE6F4FEC0CF02BD0010EDE2706
:1021C000640EEE6F24EC07F0C3D7D00EF66E0B0E44
:1021D000F76E080EEE6F4FEC0CF0DDC0EEF01B0E4C
:1021E000EF6F73EC0CF0DA0EF66E0B0EF76E060E58
:1021F000EE6F4FEC0CF022C0EEF0370EEF6FA9EC53
:102200000CF0E20EF66E0B0EF76E030EEE6F4FEC57
:102210000CF04AEF12F0E60EF66E0B0EF76E38EC8D
:1022200007F0DDC0EEF0F06BEF6BF26B040EF16FB8
:1022300012DC015227E1FC0EF66E0B0EF76E38EC45
:1022400007F0010EDE6F2050DE5D15E2036ADE51FD
:10225000230FE96E000E0320EA6EEFCFDFF0DFC040
:10226000EEF01B0EEF6F73EC0CF0200E9EA8FED765
:10227000AD6EDE2BE8D7040EF66E0C0EF76E38EC62
:1022800007F016D00A0EF66E0C0EF76E0E0EEE6FFD
:102290004FEC0CF022C0EEF0370EEF6FA9EC0CF013
:1022A0001A0EF66E0C0EF76E080EEE6F4FEC0CF079
:1022B0006FEF12F0DFC0F3F0040EF46F84EC0BF05C
:1022C000E1C0E4F0E1C0F5F071EC0BF0E0C0E4F047
:1022D000E0C0F5F071EC0BF0E3C0E4F0E3C0F5F022
:1022E00071EC0BF0E2C0E4F0E2C0F5F071EC0BF041
:1022F00098EC0BF01E92DF5321E0F7EC0BF001524B
:1023000013E1FF0E6527D8A06627D8A06727D8A0BD
:102310006827655306E1665304E1675302E1685399
:1023200003E000D000D0E9D7655308E1665306E129
:10233000675304E1685302E10C0E226E686B676B11
:10234000270E666F100E656F22C001F0B0EF11F01E
:10235000DDC0DFF0E16BE06BE36B020EE26FAAD74A
:10236000015226E1240EF66E0C0EF76E38EC07F0E3
:10237000010EDE6F2050DE5D15E2036ADE51230F91
:10238000E96E000E0320EA6EEFCFDFF0DFC0EEF063
:10239000370EEF6FA9EC0CF0200E9EA8FED7AD6EA5
:1023A000DE2BE8D72C0EF66E0C0EF76E38EC07F02D
:1023B00094EF12F0EA6A800EE96EF2CFDDF0F29E41
:1023C000000E83EC04F00A000900F550EE6E0009DF
:1023D000FBE1DDBFF28EDE6B800EDD6FE06B980EF1
:1023E000DF6F50EC09F001520BE1DE6BAA0EDD6FDE
:1023F00065EC0AF001C0D8F0D8C0DDF0CAEF0CF0EF
:10240000EA6A800EE96EF2CFDDF0F29E000E95ECE6
:1024100004F00A000900F550EE6E0009FBE1DDBF93
:10242000F28EDE6B800EDD6FE06B980EDF6F50EC8E
:1024300009F001520AE1DE6BAA0EDD6F65EC0AF0CD
:1024400001C0D9F0D9C0DDF030D5EA6A800EE96E5E
:10245000F2CFDDF0F29E000EA5EC04F00A000900B8
:10246000F550EE6E0009FBE1DDBFF28EDE6B800EF3
:10247000DD6FE06B980EDF6F50EC09F001520AE15E
:10248000DE6BAA0EDD6F65EC0AF001C0DAF0DAC08F
:10249000DDF05DD6EA6A800EE96EF2CFDDF0F29EE5
:1024A000000EB4EC04F00A000900F550EE6E0009CD
:1024B000FBE1DDBFF28EDE6B800EDD6FE06B980E10
:1024C000DF6F50EC09F001520AE1DE6BAA0EDD6FFE
:1024D00065EC0AF001C0DBF0DBC0DDF09CD6EA6AF7
:1024E000800EE96EF2CFDDF0F29E000EC3EC04F038
:1024F0000A000900F550EE6E0009FBE1DDBFF28E27
:10250000DE6B800EDD6FE06B980EDF6F50EC09F034
:1025100001520AE1DE6BAA0EDD6F65EC0AF001C024
:10252000DCF0DCC0DDF014D7F5EF12F0D66B040E52
:10253000D76F036AD7516C0FE96E000E0320EA6E65
:10254000EF503D081AE0036AD651980F016E000E55
:10255000032203C0D9F0036AD7516C0FE96E000E55
:102560000320EA6EEFCFDAF0D9C0EAFF01C0E9FF3D
:10257000DAC0EFFFD62BD72BDCD7036AD651980FE2
:10258000E96E000E0320EA6EEF6AD66B010ED727C4
:10259000036AD7516C0FE96E000E0320EA6EEF500C
:1025A0003A081AE0036AD651AA0F016E000E032200
:1025B00003C0D9F0036AD7516C0FE96E000E0320F7
:1025C000EA6EEFCFDAF0D9C0EAFF01C0E9FFDAC066
:1025D000EFFFD62BD72BDCD7036AD651AA0FE96EB3
:1025E000000E0320EA6EEF6AE5D637EF13F06CC0F9
:1025F000BEF06DC0BFF06EC0C0F0C16BEA6AC20E23
:10260000E96EF2CFD6F0F29E000ED4EC04F00A0090
:102610000900F550EE6E0009FBE1D6BFF28EDE6BCD
:10262000BE0EDD6FE06BC20EDF6F50EC09F00152A1
:10263000D8B4AFEF09F0EA6AC20EE96EF2CFD6F075
:10264000F29E000EE3EC04F00A000900F550EE6E75
:102650000009FBE1D6BFF28EDE6BBE0EDD6FE06BD4
:10266000C20EDF6F50EC09F00152D8B45FD791EF82
:1026700013F0BB6BBA6BB96BB86BBC6B010EBD6F63
:10268000BBC0F1F0BAC0F0F0B9C0EFF0B8C0EEF0E6
:10269000F56BF46B480EF36F860EF26FD4EC07F017
:1026A00034E3BD512A0831E09EAA13D00FEF08F0A1
:1026B00001C0BDF0036ABC516C0FE96E000E03202F
:1026C000EA6EBDC0EFFFBC2BBB6BBA6BB96BB86BCE
:1026D0001BD0D892BBC0F1F0BAC0F0F0B9C0EFF097
:1026E000B8C0EEF00A0EF56FD70EF46F230EF36F3D
:1026F000780EF26F1BEC08F003C0BBF002C0BAF01A
:1027000001C0B9F000C0B8F0BBD7036ABC516C0F70
:10271000E96E000E0320EA6EEF6ABC510608D8A0ED
:1027200066D7CAEF13F0F86AD09E078E700ED36E8C
:102730009B9C9B9ED350176AB886A00EAF6E010E6D
:10274000B06EA60EAC6E900EAB6E1E90646B636B9B
:10275000B50ECD6ECF6ACE6A9E909D8093968A8686
:102760001E92686B676B270E666F100E656F696B44
:10277000000E7E6EC198C19A7F50E00B7F6E799AF1
:1027800079987A6A7B6A186A196AC9EF07F09EAA73
:0827900001D06FD7FCD7030054
:020000040030CA
:0E00000000C8181E008F81000FC00FE00F40D7
:00000001FF
;PIC18F26K20
;CRC=5C79  CREATED="15-ago-16 14:55"
