:04060000EFEF11F017
:08060800046ED8CF05F0E0CF2D
:1006100006F00001E9CF0CF0EACF07F0E1CF08F0D7
:10062000E2CF09F0D9CF0AF0DACF0BF0F3CF12F016
:10063000F4CF13F0FACF14F000C00EF001C00FF0A9
:1006400002C010F003C011F09DA02AEF03F09EB08D
:1006500082EF04F0F2A830EF03F0F2B2F4EF04F00E
:100660000EC000F00FC001F010C002F011C003F086
:100670000CC0E9FF07C0EAFF078E08C0E1FF09C010
:10068000E2FF0AC0D9FF0BC0DAFF12C0F3FF13C0AC
:10069000F4FF14C0FAFF045006C0E0FF05C0D8FF05
:1006A000100007AE03D0F2CF0DF0F29EF76AC40F30
:1006B000F66E060EF7220900F55007AE02D00DBE09
:1006C000F28E120000C1814001C0804101C0804112
:1006D00000C1814001C0804100C1814000C1814012
:1006E00001C0804101C0804100C1814000C1814002
:1006F00001C0804100C1814001C0804101C08041F2
:1007000000C1814001C0804100C1814000C18140E1
:1007100001C0804100C1814001C0804101C08041D1
:1007200000C1814000C1814001C0804101C08041C1
:1007300000C1814001C0804100C1814000C18140B1
:1007400001C0804101C0804100C1814000C18140A1
:1007500001C0804100C1814001C0804101C0804191
:1007600000C1814000C1814001C0804101C0804181
:1007700000C1814001C0804100C1814000C1814071
:1007800001C0804100C1814001C0804101C0804161
:1007900000C1814001C0804100C1814000C1814051
:1007A00001C0804101C0804100C1814000C1814041
:1007B00001C0804100C1814001C0804101C0804131
:1007C00000C1814007AE03D0F2CF0DF0F29EF76A70
:1007D000E60FF66E070EF7220900F55007AE02D0BD
:1007E0000DBEF28E120000C0C101C30302C2C606D4
:1007F00007C705C5C404CC0C0DCD0FCFCE0E0ACA59
:10080000CB0BC90908C8D81819D91BDBDA1A1EDEA8
:10081000DF1FDD1D1CDC14D4D515D71716D6D21258
:1008200013D311D1D010F03031F133F3F23236F668
:10083000F737F53534F43CFCFD3DFF3F3EFEFA3A18
:100840003BFB39F9F83828E8E929EB2B2AEAEE2EA8
:100850002FEF2DEDEC2CE42425E527E7E62622E218
:10086000E323E12120E0A06061A163A3A26266A668
:10087000A767A56564A46CACAD6DAF6F6EAEAA6AD8
:100880006BAB69A9A86878B8B979BB7B7ABABE7E28
:100890007FBF7DBDBC7CB47475B577B7B67672B2D8
:1008A000B373B17170B05090915193535292965668
:1008B0005797559594549C5C5D9D5F9F9E5E5A9A98
:1008C0009B5B99595898884849894B8B8A4A4E8E28
:1008D0008F4F8D4D4C8C4484854587474686824298
:1008E0004383418180404745545F42504D3D2575CB
:1008F0003A256C752A0D0A0054454D503A25663B41
:100900000D0A0000E32BD8B4E42B9E9030EF03F0E7
:10091000938081B0FED7080E006E0101216BF2CFEB
:1009200022F1F29E008E11D0009E0FD0D89081B09F
:10093000D8802133008C09D0009C002EF7D7008A84
:1009400004D0009A21C101F00ED0840E00BE240E06
:10095000016E012EFED700D000BEE6D700BCECD75A
:1009600000BAEFD7E3D722BFF28E0001F5EF04F013
:1009700022C100F023C101F0026AD890003601368E
:10098000023601C0E3F002C0E4F000C0CFFFCE6A3F
:1009900012003F98010121B13F88236B226B0001B7
:1009A000E7DF1200E75101012119226F036A22518A
:1009B000F2CF23F1F29E000174DE010123BFF28E1B
:1009C000016E0001E6510118E76F036A010122512F
:1009D000F2CF23F1F29E0001F5DE010123BFF28E7A
:1009E000E8CFE6F00001120093D701C020F13FB636
:1009F0002AD0E55308E1E769E66920C19FF0E52BBD
:100A0000A06BA26B18D0E52D04D020C1A1F0E52B7E
:100A100012D0E55102080FE1A0513F0802E23F0E5B
:100A2000A06F036AA051A30FE96E000E0320EA6EC7
:100A300020C1EFFFA02B010E0101216F0001A9DFF2
:100A400020C121F1AFDFF29230EF03F0494E49436C
:100A500049414C495A41444F0000F292F19C939A0B
:100A60008A9AF288120093988A98F7DFC00EF212E1
:100A70006FEF12F00900F5520DE0F6CFECF0F7CF72
:100A8000EDF0F5509EA8FED7AD6EECC0F6FFEDC0C0
:100A9000F7FFF0D779EF12F0E3C001F0CE50CFCFDF
:100AA00003F09D90026EE351015C04E0CE50CFCF85
:100AB00003F001D0025003C000F0E3C001F0E4C035
:100AC00002F00232013200329D8087EF05F0E551DD
:100AD00002080AE1E65308E1E75306E13FB604D015
:100AE000020EA05F3F8601D03F96E769E669E56B9D
:100AF000166AF2BE168EF29E0101216B000149DFDB
:100B000016BEF28E91EF05F03FA80BD0C5D701C0FD
:100B1000EDF000C0ECF0ED5303E1EC51280801E2E8
:100B2000D6D794EF05F0F0D73FB604D0000E016E93
:100B30000AD006D0A1AF04D0A3C0A2F0010EA06FCE
:100B40003F96010E016E7BEF12F007C10EF101011D
:100B50000B510E1B0EAF05D0D894D89007BFD8808C
:100B60002FD007C10EF10AC10FF106510F5F06E049
:100B70000EAF26D0D850010AD86E22D00BC10FF18B
:100B800007510F5F06E00EAF1BD0D850010AD86E98
:100B900017D00CC10FF108510F5F06E00EAF10D057
:100BA000D850010AD86E0CD00DC10FF109510F5F5A
:100BB00006E00EAF05D0D850010AD86E01D0D8900B
:100BC000000112008E0E006E08C101F007C102F094
:100BD000036A015209E102C001F0026A080E005ED8
:100BE000015202E1006A08D0D89001BE04D002365A
:100BF00001360006F9D7019E120001011351D8B445
:100C000071D0006E1751D8B46DD0002604E3810E68
:100C1000002668E204D07F0E005E64E363E014C146
:100C20001BF118511B1B148F188F16511A03F4CF88
:100C30001DF115511903F4CF03F0F3CF1CF11A0382
:100C4000F3501D27F4501C23000E032216511903E4
:100C5000F3501D27F4501C23000E026A03220222C7
:100C600014511A03F3501C27F4500322000E0222E1
:100C700014511903F3500326F4500222000E016AA6
:100C8000012216511803F3501C27F4500322000EC2
:100C90000222012215511803F3500326F4500222B8
:100CA000000E012214511803F3500226F4500122C1
:100CB000002A01BE05D01C37033602360136000675
:100CC000000E1CAF0AD0032A02220122015005E1C6
:100CD000025003E1035001E1002A1BBF018E1BAF4C
:100CE000019E04D0006A016A026A036A00011200D0
:100CF000800ED8A202D001010B1B0101106B116BF9
:100D000007C10FF10B510F1B0651D8B4DFD00E6F86
:100D1000006E0A51D8B4E3D00E5FD8B483D03EE35E
:100D20000BC114F1148F0CC113F10DC112F1116B31
:100D3000D89014331333123311330E2FF8D70FAF6B
:100D400003D01081E0D010910E911089010EEA6E4F
:100D5000090EE96EEBD010990FBF0AD00EA113D087
:100D60001433133312331133002AD8B4C7D00BD045
:100D700014BF0CD0D8901137123713371437000630
:100D8000D8B4BCD0F5D7108D6DD0109D07C10FF130
:100D900007AF02D0148FABD0149FA9D00AC10EF1B7
:100DA0000AC100F006510E5F07C114F1148F08C18B
:100DB00013F109C112F1116BD890143313331233AC
:100DC00011330E2FF8D70FAF03D010839CD01093A0
:100DD0000E91108B010EEA6E0D0EE96EA7D0109BDE
:100DE0000FBF0AD00EA113D01433133312331133B3
:100DF000002AD8B483D00BD014BF0CD0D8901137B0
:100E00001237133714370006D8B478D0F5D7108FBF
:100E100029D0109F0BC10FF10BAF02D0148F67D0F8
:100E2000149F65D00BC114F1148F0CC113F10DC1C7
:100E300012F10FAF04D0149F108565D01095116B7F
:100E40000E91010EEA6E090EE96E70D00FBF1CD034
:100E500007C10FF10EA106D014331333123311332F
:100E6000002A4CE011AF0BD0122B09E1132B07E144
:100E7000142B05E1143313331233002A3FE010BD65
:100E800084D710BFC6D71CD0800E141B14AF04D05B
:100E90003AD00BC10FF10AD007C10FF1145306E18C
:100EA000135304E1125302E1006A21D014BF08D0A9
:100EB000D8901137123713371437002EF7D71ED0BA
:100EC0000FAF02D0148F13D0149F11D00AC100F0BD
:100ED0000BC114F10CC113F10DC112F108D006C100
:100EE00000F007C114F108C113F109C112F114C1D6
:100EF00001F013C102F012C103F034D0006A016A9C
:100F0000026A036A2FD0116B121F131F141F111FC7
:100F1000112B05E1122B03E1132B01E1142B10B16E
:100F200012D710B354D710B589D7B3D7EF501227C3
:100F300005E3132B03E1142BD8B40E81ED52EF50CF
:100F4000132703E3142BD8B40E81ED52EF50EFBEFC
:100F500001D0800A1427D8B00E8110B9FCD610BB7E
:100F60003ED774D700011200C282C2B2FED7C3CFEF
:100F700046F0C4CF47F04150475C08E303E14650D8
:100F8000405C04E247C041F046C040F04750435C3B
:100F900008E303E14250465C04E247C043F046C028
:100FA00042F04250405CED6F43504158EE6F455067
:100FB000EE5D0AE303E1ED51445C06E24250405C21
:100FC000446E43504158456E45C008F144C007F196
:100FD000F9DD03C016F102C015F101C014F100C023
:100FE00013F101011A6B196B186B7E0E176F00015C
:100FF00004DE03C0F0F002C0EFF001C0EEF000C06C
:10100000EDF041C008F140C007F1DCDDD88203C03B
:1010100009F102C008F101C007F100C006F1F0C0FB
:101020000DF1EFC00CF1EEC00BF1EDC00AF160DE86
:1010300003C0F4F002C0F3F001C0F2F000C0F1F020
:1010400047C008F146C007F1BDDDF4C009F1F3C0A7
:1010500008F1F2C007F1F1C006F103C00DF102C0C2
:101060000CF101C00BF100C00AF16FDD05E34A523B
:1010700003E1010E48264A6E45C008F144C007F15D
:10108000A1DD03C016F102C015F101C014F100C0CA
:1010900013F101011A6B196B186B7E0E176F0001AB
:1010A000ACDD03C0F0F002C0EFF001C0EEF000C014
:1010B000EDF043C008F142C007F184DDD89203C0CF
:1010C00009F102C008F101C007F100C006F1F0C04B
:1010D0000DF1EFC00CF1EEC00BF1EDC00AF108DE2E
:1010E00003C0F4F002C0F3F001C0F2F000C0F1F070
:1010F00047C008F146C007F165DD03C009F102C031
:1011000008F101C007F100C006F1F4C00DF1F3C011
:101110000CF1F2C00BF1F1C00AF117DD03E34A2C28
:1011200001D04A6A8CEF09F0010EEA6E070EE96EF3
:10113000EF500EE0050E016E006A002EFED7012E64
:10114000FBD72E0E006E002EFED700D0EF2EF2D76A
:101150001200016A026A006A036AF05102E1EF516B
:1011600018E0100EF16FD890ED37EE3700360336E9
:10117000F051035C02E1EF51005C07E3EF51005EC8
:10118000D8A00306F051035ED88001360236F12F55
:10119000EAD7A5EF09F00900F6CF07F1F7CF08F17C
:1011A000F5509EA8FED7AD6E07C1F6FF08C1F7FF48
:1011B0000101062F01D002D00001EDD7000112007D
:1011C000F051016AEF5D03E2EFC000F00CD0006A5D
:1011D000080EF16FEF370036F051005CD8B0006EAA
:1011E0000136F12FF7D712000150EDC0EFF0640E79
:1011F000F06FE6DF00C0EDF00150300E07E1EEA326
:101200000DD0EEB70BD0EEB9200E03D0EE97EE99CD
:10121000EE81012601509EA8FED7AD6EEDC0EFF025
:101220000A0EF06FCDDF00C0EDF00150300E06E188
:10123000EEB709D0EEA107D0EEB9200E012601507D
:101240009EA8FED7AD6E300EED27ED519EA8FED7BD
:10125000AD6EB7EF09F0EACFF5F0E9CFF4F0EE3973
:10126000F009F06FF027E20FF16F320FF36FEE51DC
:101270000F0BF127F127F327E90FF26FF227F2277F
:10128000ED390F0BF227F327F237F337F31FF3375C
:10129000ED510F0BF327F037070EEF6F0A0EF20731
:1012A000F327FDE3F107F227FDE3F007F127FDE364
:1012B000EF07F027FDE3EA6AEF0EE96E070EF4157B
:1012C000F49DE926F30EE95CD8B4F48DEF50006E7E
:1012D00008E1F4BD06D0F4B90CD0F4B702D0200E6A
:1012E00003D0F487F499300E002600509EA8FED754
:1012F000AD6EEE50F4ADE6D7C2EF09F0416A406A38
:101300000F0E436EA00E426E456A446A486AEC6B4B
:10131000EC51630808E328D6020E0101076F0001B3
:1013200003DFEC2BF5D745523BE14450F90838E395
:10133000455203E14450320833E2050EEE6FDC0EF5
:10134000ED6FF06B48C0EFF004D702C03CF001C075
:101350003BF0E60EF66E080EF76E080E0101066F02
:10136000000119DF010EED6F1B0EEE6F3DD73A0E37
:101370009EA8FED7AD6E100EE96E3CC0EEF03BC0ED
:10138000EDF069D7F40EF66E080EF76E030E01014C
:10139000066F000100DF3CC022F03BC021F009D005
:1013A0004B50050804E2226A216A4B6A02D0010E02
:1013B0004B26F2EF09F0F29CF29EF2BEFDD7040E2E
:1013C000016EC250830B0110C26E000E016EC1503F
:1013D000F80B0110C16E0C0E006E002EFED700D06F
:1013E00000008CD7C00EF2123CC024F03BC023F0AA
:1013F00092EF12F0040E0101125F0AE3010EEA6E91
:10140000120EE96EEF5004E001D00000EF2EFDD780
:101410000001120092908990020E0101116FF30EEB
:10142000126F0001E7DF0101112FF9D792805F0EE3
:10143000006E002EFED700D09280106B80B0102B73
:10144000020E116FD30E126F0001D4DF0101112FB4
:10145000F9D710C101F000011200929089900101AA
:10146000132D06D0060E006E002EFED700009280CF
:101470008B0E006E002EFED700D09280000112006D
:101480000101116B1151070812E310C112F1115142
:10149000016E04E0D8901233012EFCD7010E121712
:1014A00012C113F10001D9DF0101112BEBD78B0E13
:1014B000006E002EFED700D000011200929089909D
:1014C000060E006E002EFED700009280160E006EF3
:1014D000002EFED700009280000E80B0010E016E3B
:1014E00012000101156B166B1451165D20E21651A6
:1014F0001225016E000E132101C0E9FFEA6EEFCF45
:1015000017F1186B1851070810E315511719196FC7
:10151000E8A005D0D89015338C0E151B02D0D890BA
:101520001533D8901733182BEDD7162BDDD715C1EF
:1015300001F00001A4EF0AF00101136B11C112F1D7
:10154000080E146F0001CDD701C09EF09EC001F0BF
:1015500032EF0BF0010E0101086F096B0A6F0B6B84
:101560000C6B0E6B00019E6B55DF01010F9101B0FA
:101570000F810FB102D03FA404D0546A000E016E57
:1015800086D0F00E106F00017BDF01010B6B0001B4
:1015900095DF012C04D0020E01010B6F00019F0E9C
:1015A000006E002EFED700D089DF012C03D0010190
:1015B0000B81000101010B51030802E159D055D004
:1015C0000B5304E0D8900B310D6F1DD05450085DC3
:1015D0000FE2036A09514C0FE96E000E0320EA6E18
:1015E000EF500A1502E1000E01D0010E0D6F07D079
:1015F0005450085D02E0000E01D0010E0D6F0D5336
:10160000D8B408C10CF10D2D0BD0036A09514C0F51
:10161000E96E000E0320EA6EEF500A11EF6E0BD058
:10162000036A09514C0FE96E000E0320EA6E0A515D
:10163000FF0AEF14EF6E0DC113F100010EDF01017F
:10164000082BD8900A370A5310E1036A09514C0F4E
:10165000E96E000E0320EA6EEFCF10F110C111F118
:1016600000016AD70101092B0A2B095107088EE2F4
:101670000851400802E3546A08D00CC154F03F946A
:10168000545201E13F84010E0E6F0EC101F00001C2
:101690001200546A3F945EDF015056EF0BF00101D7
:1016A000076B0001B7DE015234E1F3D7015231E09C
:1016B0009D6B9D2B0101072B066B0651070825E347
:1016C00000019D51080DF3500101096B086F036A79
:1016D00006510825016E095103220150550F016E74
:1016E000000E032203C009F1036A06514C0FE96E94
:1016F000000E0320EA6EEFCF0AF109C1EAFF01C034
:10170000E9FF0AC1EFFF062BD8D7000123DF015202
:10171000D0E1010107C101F0000127EF0DF07ADEF1
:10172000015203E0000E016E28D0550E0101106F2A
:101730000001A6DE0101066B065107081CE300014B
:101740009D51080DF3500101086B076F036A0651A4
:101750000725016E085103220150550FE96E000E56
:101760000320EA6EEFCF07F107C110F1000188DE18
:101770000101062BE1D7010E016E000148EF0DF0CB
:101780000101096B086B0851070819E3000196DE97
:1017900001520DE0010E006E01010851016E04E0DE
:1017A000D8900036012EFCD70050091300019F0E7F
:1017B000006E002EFED700D00101082BE4D709C12E
:1017C00001F0000161EF0DF001011351B608136F34
:1017D000036A14C117F1148FD890143315331633DC
:1017E0000332023201320032132FF6D717AF0BD07B
:1017F000001E011E021E031E002AD8B4012AD8B4FE
:10180000022AD8B4032A00017CEF0CF0D8B204D02D
:10181000010EEA6E1B0EE96E006A016A026A036A33
:1018200001011B6B1C6B1D6B1E6B1A5119111811DA
:1018300017112CE0200E1F6FD8901337143715376F
:1018400016371B371C371D371E371A511E5D08E12E
:1018500019511D5D05E118511C5D02E117511B5D19
:101860000FE317511B5F1851D8A0183D1C5F195189
:10187000D8A0193D1D5F1A51D8A01A3D1E5FD8800F
:1018800000360136023603361F2FD6D71BC1EFFFB5
:101890001CC1ECFF1DC1ECFF1EC1ECFF00011200DA
:1018A000E95001010B6F0A510D6F1CE009C116F1DF
:1018B00008C115F107C114F106C113F11A6B196BB8
:1018C000200E186F820E176F0001FDEC05F003C0AB
:1018D00009F102C008F101C007F100C006F10101E1
:1018E0000D2FE4D709C116F108C115F107C114F194
:1018F00006C113F1000168D703C009F102C008F165
:1019000001C007F100C006F1010109AF0DD00B07BE
:101910000B8B061F071F081F091F062BD8B4072BA8
:10192000D8B4082BD8B4092B3B0E126F9A0E116F46
:10193000CA0E106F0F6B0A0E0D6F0A51D8B40B2B25
:10194000D882010EEA6E060EE96E09C116F108C1D1
:1019500015F107C114F106C113F112C11AF111C139
:1019600019F110C118F10FC117F100014FDF01503B
:10197000005213E101010A290D5DD8A402D0000133
:101980000CD00B510DE00F0B0D5D01E03CE20BBFE5
:101990003AD00BBD05D0200E31D0200E01010B171F
:1019A0000BAB0DD00B9B0A51D8A40B0700500B6F4B
:1019B0002D0E9EA8FED7AD6E0B51006E0B6B0A511B
:1019C0000D5D0BE100500B6F2E0E9EA8FED7AD6E85
:1019D0000B51006E200E0B17000E300E0BAB0ED00D
:1019E0000B9B0A51D8A40B0700500B6F2D0E9EA81D
:1019F000FED7AD6E0B51006E0B6B300E0026005003
:101A00009EA8FED7AD6ED89212C116F111C115F184
:101A100010C114F10FC113F11A6B196B186B0A0E78
:101A2000176F0001F3DE03C012F102C011F101C013
:101A300010F100C00FF101010D2F82D700013BEF23
:101A40000EF0EE6BE7DC0152D8A421D128D601C0FC
:101A5000EEF0CC0E0101106F000112DD440E010109
:101A6000106F00010DDD9280030E0101066FFA0E6A
:101A7000076F000194EC08F00101062FF8D7000170
:101A8000C9DC010E9D6F9D51EE5DD8A000D147D6F7
:101A90000152D8B4FAD0BE0E0101106F0001F0DC83
:101AA0000101016B0151010815E3036A0151F70FB0
:101AB000016E000E032201C006F103C007F1000110
:101AC0005FD607C1EAFF06C1E9FF01C0EFFF0101D0
:101AD000012BE8D7F8C020F0F7C01FF020C0F4F0C9
:101AE0001FC0F3F00001F4AF15D02D0E0101006FFF
:101AF000F3C006F10101061FF4C007F10101071F41
:101B0000010E06250001F36F000E010107210001FF
:101B1000F46F04D02B0E0101006F0001F66BF56B22
:101B2000F3510F0BED6FF431036EF331026E03329C
:101B3000023203320232033202320F0E031602C0A7
:101B400007F103C008F10001E2EC05F003C0F2F078
:101B500002C0F1F001C0F0F000C0EFF0ED3D1BD08D
:101B6000D892F2C009F1F1C008F1F0C007F1EFC05E
:101B700006F101010D6B0C6B0B6B7F0E0A6F000100
:101B800078EC06F003C0F2F002C0F1F001C0F0F012
:101B900000C0EFF010D00101016B0001ED51010117
:101BA000015D08E2950E0001F527010EF623010103
:101BB000012BF3D700010101096B086B076B7F0E46
:101BC000066FF2C00DF1F1C00CF1F0C00BF1EFC0E7
:101BD0000AF10001A5EC05F058E3F6C008F1F5C0E4
:101BE00007F1E2EC05F003C016F102C015F101C0E7
:101BF00014F100C013F1170E01011A6FB70E196F1F
:101C0000510E186F710E176F0001FDEC05F0D892A0
:101C1000F2C009F1F1C008F1F0C007F1EFC006F120
:101C200003C00DF102C00CF101C00BF100C00AF1BC
:101C300078EC06F003C005F102C004F101C003F125
:101C400000C002F1F80EF66E080EF76E050E0101E7
:101C5000066F0001CBEC08F0890EE96E05C109F1B1
:101C600004C108F103C107F102C106F1020E01012E
:101C70000A6F000115D6FF0EF66E080EF76E030E02
:101C80000101066F0001CBEC08F09D2BFCD694EF10
:101C900012F0F2CF03F0F29EFE6B93968A96080E36
:101CA000016E00D00000018E17D0019EFD51FE1B79
:101CB000FD33D8B08A86D8A08A96018C0DD0019CBD
:101CC000012EF4D700D00000FEB18A86FEA18A96CC
:101CD000018A02D0019A8A86840EE96EE92EFED727
:101CE000000001BEE2D701BCEAD701BAF3D703BEB8
:101CF000F28E7EEF0EF0FCC0FDF0CBD7166AF2BE7E
:101D0000168EF29EFCC021F1D2EC04F016BEF28ECB
:101D10008A0E006E002EFED700001200E769E66909
:101D20003F96F29893988A88020EFC6FB50E0101D7
:101D3000126F0001FAEC09F0FC2FF8D7FAC0FCF0A2
:101D4000DADFFBC0FCF0D7DF1200E7C0FBF0E6C033
:101D5000FAF0FBC0FCF0CFDFFAC0FCF0CCDF020EE3
:101D6000FC6FB50E0101126F0001FAEC09F0FC2FB7
:101D7000F8D72DEC05F093988A98E769E669120088
:101D8000F2518009F56FF3C0F6F0F1C0FAF0FB6F85
:101D9000C5DFF4C0FCF0AFDFD8DF1200F1C0FAF00D
:101DA000020EFB6FBBDFF2C0FCF0A5DFF56BF2515A
:101DB000F55D10E2F4C003F0F3C0E9FFF4C0EAFF00
:101DC000EFCFF6F0F6C0FCF096DFF32BD8B4F42B8F
:101DD000F52BEDD7BADF1200F4C0FAF0030EFB6F5B
:101DE0009DDFF5C0FCF087DFF86BF551F85D27E269
:101DF000F7C003F0F6C0E9FFF7C0EAFFECCFFAF056
:101E0000ED52EFCFF9F0FAC0FBF0FAC0FCF073DF4F
:101E1000F7C003F0F6C0E9FFF7C0EAFFECCFFAF035
:101E2000ED52EFCFF9F0F9C0FBF0F9C0FCF063DF41
:101E3000020EF627D8B0F72B020EF827D6D785DF8B
:101E4000A1EF10F0F4C0FAF0040EFB6F67DFF5C0ED
:101E5000FCF051DFF86BF551F85D27E2F7C003F0B5
:101E6000F6C0E9FFF7C0EAFFECCFFAF0ED52EFCF92
:101E7000F9F0FAC0FBF0FAC0FCF03DDFF7C003F068
:101E8000F6C0E9FFF7C0EAFFECCFFAF0ED52EFCF72
:101E9000F9F0F9C0FBF0F9C0FCF02DDF020EF627D7
:101EA000D8B0F72B020EF827D6D74FDFA1EF10F0EE
:101EB000F3C0FAF0050EFB6F31DFF5C0F8F0F5C0A6
:101EC000FCF019DFF4C0F8F0F4C0FCF014DFF7C048
:101ED000F8F0F7C0FCF00FDFF6C0F8F0F6C0FCF049
:101EE0000ADF33DFEDEF10F0F5C0FAF0060EFB6FFE
:101EF00015DFF7C0FAF0F7C0FCF0FDDEF6C0FAF02F
:101F0000F6C0FCF0F8DEF9C0FAF0F9C0FCF0F3DE40
:101F1000F8C0FAF0F8C0FCF0EEDE17DF1FEF11F0AA
:101F2000F1A102D0800E01D0000EF26FF1A302D019
:101F3000400E01D0000EF213F1A502D0200E01D008
:101F4000000EF213F1A702D0100E01D0000EF21312
:101F5000F1A902D0080E01D0000EF213F1AB02D0AD
:101F6000040E01D0000EF213F1AD02D0020E01D02A
:101F7000000EF213F1AF02D0010E01D0000EF211EB
:101F8000016E37EF11F0F5C0FAF00F0EFB6FC6DEF1
:101F9000F7C0FAF0F7C0FCF0AEDEF6C0FAF0F6C01B
:101FA000FCF0A9DEF9C0FAF0F9C0FCF0A4DEF8C03C
:101FB000FAF0F8C0FCF09FDEC8DE81EF11F0F5C04A
:101FC000FAF0100EFB6FAADEF7C0FAF0F7C0FCF0D3
:101FD00092DEF6C0FAF0F6C0FCF08DDEF9C0FAF041
:101FE000F9C0FCF088DEF8C0FAF0F8C0FCF083DE3F
:101FF000ACDEE2EF11F09F2D01D003D09F53D8A4A7
:10200000ECD1A151010A13E0030A11E0010A5BE0DF
:10201000070A59E0010AD8B498D0030AD8B4E1D02D
:10202000090AD8B40DD11F0AD8B46FD1CFD1A353A8
:1020300009E1A55307E1A451070804E3A451A6252B
:10204000080809E2010EF16FF36BA1C0F2F0020E75
:10205000F46F96DE37D0A12D0AD01DC0ECF0A4514C
:10206000016E04E0D890EC33012EFCD709D01EC0DD
:10207000ECF0A451016E04E0D890EC33012EFCD7B3
:10208000080ED880A655016EFF0E006E015204E0C6
:10209000D8900032012EFCD70050EC17A12D08D0AB
:1020A000010EF16FF26FF46BEC0EF36F77DE07D079
:1020B000010EF16FF26FF46BEC0EF36F6FDE372AE7
:1020C000D8B4382A8AD1A35309E1A55307E1A45112
:1020D000070804E3A451A625080809E2010EF16FE0
:1020E000F36BA1C0F2F0020EF46F4ADE2DD0A151C5
:1020F000030814E1D890A635F16FD890A4351F0FCE
:10210000F26FF36BD8B0F32B010EF46FF1C0F5F062
:10211000F3C0F7F0F2C0F6F05FD613D0D890A63532
:10212000F16FD890A435270FF26FF36BD8B0F32B73
:10213000010EF46FF1C0F5F0F3C0F7F0F2C0F6F065
:1021400081D6372AD8B4382A48D1A35305E1A653FB
:1021500003E1A451080809E2010EF16FF36BA1C07D
:10216000F2F0020EF46F0CDE3BD0A53D01D00BD097
:10217000A55309E0010EF16FF36BA1C0F2F0030E5D
:10218000F46FFEDD2DD0A53D0CD0010E006EA451E4
:10219000016E04E0D8900036012EFCD700501D12CD
:1021A0000CD0010E006EA451016E04E0D8900036F0
:1021B000012EFCD70050FF0A1D16F26BA5C0F1F0EE
:1021C000A5C0F2F0F16B010EF36FF56BA4C0F4F053
:1021D000A5C0F7F0F1C0F6F06BD6372AD8B4382A8C
:1021E000FCD0A35303E1A451070809E2010EF16FEB
:1021F000F36BA1C0F2F0020EF46FC2DD20D0D890D4
:10220000A435036A1F0FE96E000E0320EA6EA5C015
:10221000ECFFED52A6C0EFFFA3C0F2F0A4C0F1F0B6
:10222000A5C0F4F0A6C0F3F0010EF56FA3C0F7F05F
:10223000A4C0F6F0A5C0F9F0A6C0F8F055D6CDD0F0
:10224000A35309E1A55307E1A451070804E3A451EE
:10225000A625080809E2010EF16FF36BA1C0F2F0A8
:10226000020EF46F8DDD50D0A8C0F1F059D601C038
:10227000A8F0A4C0EDF0EE6BA651A425ED5D2EE212
:10228000A8C000F0EE51016E04E0D8900032012E9B
:10229000FCD700A010D0070ED880ED55F16F010ECD
:1022A000006EF151016E04E0D8900036012EFCD78B
:1022B00000501D1210D0070ED880ED55F16F010EA1
:1022C000006EF151016E04E0D8900036012EFCD76B
:1022D0000050FF0A1D16ED2BEE2BCED7A3C0F2F057
:1022E000A4C0F1F0A5C0F4F0A6C0F3F0010EF56FA4
:1022F000A3C0F7F0A4C0F6F0A5C0F9F0A6C0F8F0AE
:1023000042D6372AD8B4382A68D0A35309E1A55356
:1023100007E1A451070804E3A451A625080809E22F
:10232000010EF16FF36BA1C0F2F0020EF46F28DD25
:102330004CD0EF6B050EF06FD890A731EF5D2FE218
:10234000D890EF35036A1F0F016E000E032201C003
:10235000F1F003C0F2F0036AF051A30FE96E000E32
:102360000320EA6EEFCFF3F0010EF025036AA30F0E
:10237000E96E000E0320EA6EEFCFF4F0F3C0F6F042
:10238000F4C0F5F0F2C0EAFF01C0E9FFF3C0ECFFD2
:10239000ED52F4C0EFFFEF2B020EF027CDD7A3C014
:1023A000F2F0A4C0F1F0A5C0F4F0A6C0F3F0010E65
:1023B000F56FA3C0F7F0A4C0F6F0A5C0F9F0A6C071
:1023C000F8F0FDD5372AD8B4382A07D0010EF16FBE
:1023D000F36BA1C0F2F0F46FD3DCB8EF12F0F86A3F
:1023E000D09E078E720ED36E9B6A646AA786A00E7B
:1023F000AF6E010E7D6EA60EAC6E900EAB6E050E2E
:102400001D6E090E1E6E386A376A010E396E3A6EFD
:10241000580E3E6E3F903F92416A406A0F0E436EE7
:10242000A00E426E456A640E446E486A496A4A6A62
:102430004B6A546A3F943F96E46BE36B350ECD6E66
:10244000AA6ACF6ACE6A9E909D8093968A863F98AC
:10245000E56B0F015C51800B5C6F000E5D6FC196E8
:10246000C198C19A5E6B5F6B05D00200170000181F
:10247000401F0000000EF86E240EF76E6A0EF66E16
:102480000900F550006E000A13E00900F550016ED6
:10249000E8BE05D00F0BEA6E0900F5CFE9FF01BCDD
:1024A000090001AC0900F5CFEEFF004EE9D7F9D7DE
:1024B000F86A030E926E040E5E6F5F6F5C51800BC4
:1024C0005C6F020E5D6FC196C198C19AC050C00B7F
:1024D0000709C06EC08EC280000133EF05F0EB6BC0
:1024E000EA6BE96BE86B4C0EF66E0A0EF76E3AEF8C
:1024F00005F093EF05F001523AE10101096B086B19
:102500000C0E076F850E066FEBC00DF1EAC00CF1E3
:10251000E9C00BF1E8C00AF10001A5EC05F009E300
:10252000DBEF09F021EF0DF0EB6BEA6BE96BE86B89
:102530001DD0D892EBC009F1EAC008F1E9C007F15B
:10254000E8C006F16F0E01010D6F120E0C6F030E45
:102550000B6F750E0A6F000178EC06F003C0EBF00C
:1025600002C0EAF001C0E9F000C0E8F0C2D743D5EC
:04257000C0D70300CD
:020000040030CA
:0E00000015C8787C000991000FC00FE00F407A
:00000001FF
;PIC18F26K80
;CRC=08A8  CREATED="15-ago-16 14:57"
